:10000000000400205D060008490600084B060008B1
:100010004D0600084F0600085106000800000000C9
:10002000000000000000000000000000530600086F
:100030005506000800000000570600085906000891
:100040009D060008A1060008A5060008A9060008EC
:10005000AD060008B1060008B5060008B90600089C
:10006000BD060008C1060008C5060008C90600084C
:10007000CD060008D1060008D5060008D9060008FC
:10008000DD060008E1060008E5060008E9060008AC
:10009000ED060008F1060008F5060008F90600085C
:1000A000FD06000801070008050700080907000809
:1000B0000D070008110700081507000819070008B8
:1000C0001D07000821070008250700082907000868
:1000D0002D07000831070008350700083907000818
:0C00E0003D070008410700084507000824
:020000040800F2
:10000000002000E0401C4FF6DC718842FADB7047AC
:1000100080B500F004F87B2000F0A0F9FEE710B5F1
:1000200082B00121082000F0B3F90121102000F076
:10003000AFF94FF4F860ADF8000010208DF8030020
:1000400003208DF8020000A9C24800F0B3F9102087
:100050008DF8030003208DF802004FF6FF70ADF815
:10006000000000A9BC4800F0A5F901224FF4F86196
:10007000B84800F00EFA002400E0641CB4F5CA2F62
:10008000FBD3002400E0641CB4F5CA2FFBD300248A
:1000900000E0641CB4F5CA2FFBD30121002000F05E
:1000A0000EF9002400E0641CB4F5CA2FFBD3002431
:1000B00000E0641CB4F5CA2FFBD3002400E0641CEC
:1000C000B4F5CA2FFBD3002000F003F9040000218F
:1000D000002000F0F4F84FF48071012000F0EFF8F8
:1000E0004FF4E061022000F0EAF841F23001032011
:1000F00000F0E5F80021042000F0E1F840F20221D0
:10010000082000F0DCF80021092000F0D8F80021D8
:100110000A2000F0D4F801210C2000F0D0F80021D2
:100120000D2000F0CCF800210F2000F0C8F832209C
:10013000FFF766FF40F20111072000F0C0F83220FF
:10014000FFF75EFF4FF48651102000F0B8F807214A
:10015000112000F0B4F84FF48871122000F0AFF8CD
:100160004FF43061132000F0AAF80021292000F09C
:10017000A6F844F210012B2000F0A1F80021502035
:1001800000F09DF8EF21512000F099F80021522055
:1001900000F095F840F23F11532000F090F84FF432
:1001A0001C51602000F08BF80121612000F087F8DD
:1001B00000216A2000F083F80021802000F07FF801
:1001C0000021812000F07BF80021822000F077F8E8
:1001D0000021832000F073F80021842000F06FF8E4
:1001E0000021852000F06BF81021902000F067F8C6
:1001F0000021922000F063F80121932000F05FF8C5
:100200004FF48871952000F05AF80021972000F0F3
:1002100056F80021982000F052F840F273110720A0
:1002200000F04DF813BD10B504004FF400714948BB
:1002300000F02CF94FF48071464800F027F9402176
:10024000444800F020F9E4B2210089B2424800F0AD
:1002500029F980213F4800F019F980213D4800F03C
:1002600012F94FF480713B4800F00DF94FF4007122
:10027000384800F008F910BD10B504004FF40071C3
:10028000344800F003F94FF48071324800F0FBF875
:100290004021304800F0F7F8210089B22E4800F0E4
:1002A00001F980212B4800F0F1F88021294800F065
:1002B000EAF84FF40071274800F0E5F810BD10B5DA
:1002C0000C00C0B2FFF7AFFF200080B2FFF7D4FFF1
:1002D00010BD10B582B0C0B2FFF7A5FF48208DF861
:1002E000030003208DF802004FF6FF70ADF8000008
:1002F00000A9194800F05EF84FF40071154800F0AD
:10030000C5F84FF48071134800F0BDF84021114842
:1003100000F0BCF840210F4800F0B5F80E4800F09E
:10032000AFF804004FF400710A4800F0ACF8102058
:100330008DF8030003208DF802004FF6FF70ADF832
:10034000000000A9044800F035F8200080B216BD76
:100350000000000000100140000C014038B504000E
:10036000002500212020FFF7AAFF00212120FFF710
:10037000A6FF2220FFF757FF0020050004E0200021
:1003800080B2FFF779FF6D1CB5F5963FF7D331BD0D
:10039000C9B2002905D00649096808430449086024
:1003A00005E00349096831EA000001490860704727
:1003B00018100240F0B4002200260024002500237B
:1003C000002791F803C01CF00F0C624691F803C09F
:1003D0005FEACC6C01D58B781A430B781B0621D0D1
:1003E0000368002406E0CD78482D02D10125A54000
:1003F0000561641C082C14D20125A5400E882E40EE
:10040000AE42F6D1A5000F2616FA05F7BB4312FA45
:1004100005F52B43CD78282DE5D10125A540456173
:10042000E7E703600B884FF48074A34226D3436848
:10043000002420E0012514F10806B5400E882E4066
:10044000AE4217D1A5000F2616FA05F7BB4312FAE4
:1004500005F52B43CD78282D04D1012514F108068C
:10046000B5404561CD78482D04D1012514F1080629
:10047000B5400561641C082CDCD34360F0BC7047B8
:10048000806880B2704789B20161704789B241616A
:100490007047D2B2002A02D089B2016101E089B26C
:1004A0004161704789B2C1607047000080B54F4814
:1004B000006850F001004D4908604D4800684D4902
:1004C00008404B490860494800684B490840474983
:1004D00008604648006830F4802044490860444879
:1004E000006830F4FE004249086044485FF41F0190
:1004F000016000F005F842485FF00061016001BD55
:1005000080B500F001F801BD82B00020019000200C
:1005100000903648006850F4803034490860334811
:10052000006810F4003000900198401C0190009881
:10053000002803D10198B0F5A06FF0D12B480068D6
:10054000800302D50120009001E000200090009877
:10055000012847D12B48006850F010002949086055
:1005600028480068800880002649086025480068FF
:1005700050F00200234908601D481D4909680160C8
:100580001B481B49096801601948006850F48060E5
:10059000174908601648006830F47C101449086058
:1005A0001348006850F4E810114908600F480068CB
:1005B00050F080700D4908600C4800688001FBD540
:1005C0000B480068800880000949086008480068F6
:1005D00050F00200064908600548006810F00C0061
:1005E0000828F9D102B07047000000000010024056
:1005F000041002400000FFF8FFFFF6FE0810024062
:1006000008ED00E00020024000F009F8002801D0C9
:10061000C046C0460020FFF7FBFC00F002F80120B6
:10062000704700F001B800000746384600F002F8B5
:10063000FBE7000080B5C046C046024A1100182002
:10064000ABBEFBE7260002007047FEE7FEE7FEE7D1
:10065000FEE77047704770477047000001488047C9
:1006600001480047AD0400086D060008C046C046BA
:10067000C046C046FFF7C8FFFFF7E6BFFFF7E5BF7C
:10068000FFF7E4BFFFF7E3BFFFF7E2BFFFF7E1BF0C
:10069000FFF7E0BFFFF7DFBFFFF7DEBFFFF7FEBFEB
:1006A000FFF7FEBFFFF7FEBFFFF7FEBFFFF7FEBF7E
:1006B000FFF7FEBFFFF7FEBFFFF7FEBFFFF7FEBF6E
:1006C000FFF7FEBFFFF7FEBFFFF7FEBFFFF7FEBF5E
:1006D000FFF7FEBFFFF7FEBFFFF7FEBFFFF7FEBF4E
:1006E000FFF7FEBFFFF7FEBFFFF7FEBFFFF7FEBF3E
:1006F000FFF7FEBFFFF7FEBFFFF7FEBFFFF7FEBF2E
:10070000FFF7FEBFFFF7FEBFFFF7FEBFFFF7FEBF1D
:10071000FFF7FEBFFFF7FEBFFFF7FEBFFFF7FEBF0D
:10072000FFF7FEBFFFF7FEBFFFF7FEBFFFF7FEBFFD
:10073000FFF7FEBFFFF7FEBFFFF7FEBFFFF7FEBFED
:08074000FFF7FEBFFFF7FEBF4B
:040000050800066D7C
:00000001FF
